:020000040800F2
:10000000F0450020CD010008FF110008B1020008F2
:10001000FD110008D10300082D15000800000000A4
:1000200000000000000000000000000001120008B5
:10003000D3030008000000003B0200080312000880
:10004000E7010008E7010008E7010008E7010008F0
:10005000E7010008E7010008E7010008E7010008E0
:10006000E7010008E7010008E7010008E7010008D0
:10007000E7010008E7010008E7010008E7010008C0
:10008000E7010008E7010008E7010008E7010008B0
:10009000E7010008E7010008E7010008E7010008A0
:1000A000E7010008E7010008E7010008E701000890
:1000B000E7010008E7010008E7010008E701000880
:1000C000E7010008E7010008E7010008E701000870
:1000D000E701000821150008E7010008E701000812
:1000E000E7010008E7010008E7010008E701000850
:1000F000E7010008E7010008E7010008E701000840
:10010000E7010008E7010008E7010008E70100082F
:10011000E7010008E7010008E7010008E70100081F
:10012000E7010008E7010008E7010008E70100080F
:1001300000F002F800F03AF80AA090E8000C8244BF
:100140008344AAF10107DA4501D100F02FF8AFF29C
:10015000090EBAE80F0013F0010F18BFFB1A43F0A5
:1001600001031847A8240000C8240000103A24BF47
:1001700078C878C1FAD8520724BF30C830C144BF0C
:1001800004680C607047000000230024002500264E
:10019000103A28BF78C1FBD8520728BF30C148BFEA
:1001A0000B6070471FB51FBD10B510BD00F0D2F831
:1001B0001146FFF7F7FF00F006F900F0F0F803B47E
:1001C000FFF7F2FF03BC00F0F7F800000948804792
:1001D00009480047FEE7FEE7FEE7FEE7FEE7FEE729
:1001E000FEE7FEE7FEE7FEE704480549054A064B41
:1001F00070470000CD12000831010008F03F0020D8
:10020000F0450020F0410020F0410020EFF3108085
:1002100072B6704780F310887047324A1368012B1A
:1002200004D04FF0010313602F4A10602F4A116071
:100230002F484FF0805101607047EFF3108272B683
:100240002848016891B14FF000010160264801681B
:1002500029B1EFF3098121E9F00F0068016023491A
:1002600009680968B1E8F00F81F3098882F3108802
:100270004EF0040E70471D4908601B494FF0000006
:10028000086018494FF0010008601A481A49D0F870
:10029000002041EA0201016015484FF080510160E1
:1002A00016480068006880F3088861B662B6704737
:1002B0001EF0040F0CBFEFF30880EFF3098020E974
:1002C000F00F40F804ED1EF0040F0CBF80F3088817
:1002D00080F3098800B501F00FFB5DF804EB4EF0E8
:1002E000040E70472C00002024000020280000206D
:1002F00004ED00E020ED00E00000FFFF08ED00E06D
:100300004FF0000200B5134694469646203922BFAE
:10031000A0E80C50A0E80C50B1F12001BFF4F7AFF9
:10032000090728BFA0E80C5048BF0CC05DF804EBDB
:10033000890028BF40F8042B08BF704748BF20F849
:10034000022B11F0804F18BF00F8012B7047704747
:1003500070477047754600F02BF8AE4605006946B9
:10036000534620F00700854618B020B5FFF73CFF44
:10037000BDE820404FF000064FF000074FF00008A6
:100380004FF0000B21F00701AC46ACE8C009ACE827
:10039000C009ACE8C009ACE8C0098D46704710B58B
:1003A0000446AFF300802046BDE81040FFF707BFCA
:1003B00000487047903F002001491820ABBEFEE77F
:1003C00026000200704710B502F049F8002010BD69
:1003D000FEE7704772B6FEE710B590F821100022D4
:1003E000022905D00421816380F82020012010BD5E
:1003F00001680B6823F00E030B6001680B6823F0A3
:1004000001030B6090F84030C46B012101FA03F343
:10041000636080F8211080F82020104610BD000095
:100420002DE9F05F90F821100024022903D0042167
:100430008163012485E001680A6822F00E020A60E7
:1004400001680A6822F001020A603F4E3E4FB21571
:10045000DFF8F4C0DFF8F090DFF8ECA0DFF8E8B0E8
:10046000DFF8E4E00168783F13011502ACF1640C99
:10047000A9F15009AAF13C0AABF1280BAEF1140E18
:100480004FF48018B14227D9B9420ED0614512D03D
:1004900049451DD0514518D0594518D0714501D155
:1004A000424615E0294EB14201D1012210E0274E0B
:1004B0001436B14201D110220AE0244E2836B1424E
:1004C00006D0224A3C32914201D11A4600E02A4627
:1004D0001E49091F0A602BE0B94213D0614517D0AD
:1004E000494522D051451DD059451DD0714501D1F6
:1004F00042461AE0B14202D14FF0807215E0134E2D
:10050000B14201D1012210E0104E1436B14201D1A6
:1005100010220AE00D4E2836B14206D00B4A3C327A
:10052000914201D11A4600E02A46074980394A60C3
:10053000012180F82110002180F82010416B01B1C9
:1005400088472046BDE8F09F800002400804024032
:100550002DE9F84FDFF8C8910024A9F1040B2346D8
:100560000F2709F1040AABF1040ED1E00125A540E3
:1005700006EA0502AA4276D1DFF8A8C14E68A6EBCA
:100580000C0866452BD00DDC032E34D005DC36B3C9
:10059000012E19D0022E2FD11BE0112E16D0122EB3
:1005A0002AD119E0B8F5881F19D006DCB8F5803FCC
:1005B00015D0B8F5801F1FD111E0B8F5001F0ED07F
:1005C000B8F5041F18D10AE0CB6815E0CB681B1DF5
:1005D00012E0CB6808330FE0CB680C330CE08B687B
:1005E0002BB1012B4FF0080303D0456104E0042335
:1005F00002E0056100E00023FF2A01D8064601E081
:1006000000F104064FEA840501D9A5F12005D6F8CA
:10061000008007FA05FC28EA0C0803FA05F548EA09
:100620000508C6F800804D68ED0070D53E4DAE69F6
:1006300046F00106AE61AD6924F0030605F0010540
:1006400000953A4D06EB050CDCF80850A607360F6E
:1006500007FA06F825EA0805DFF8D480404503D1FB
:100660004FF0000825E052E0DFF8C880404502D195
:100670004FF001081DE0DFF8C080404502D14FF087
:10068000020816E0DFF8B480404502D14FF00308BD
:100690000FE0DFF8AC80404502D14FF0040808E0DD
:1006A000DFF8A080404502D14FF0050801E04FF08F
:1006B000060808FA06F848EA0508CCF808804D68EC
:1006C000D9F80060ED024D4601D5164300E096438F
:1006D0002E604D68DAF80060AD02554601D516432C
:1006E00000E096432E604D68DBF80060AD035D4688
:1006F00001D5164300E096432E604D68DEF8006099
:10070000ED03754601D5164300E096432E60641C48
:100710000A681646E2407FF429AFBDE8F88F000072
:1007200008040140000011100010024000000140C8
:1007300000080140000C014000100140001401407D
:1007400000180140001C01400AB101617047090412
:10075000FBE700000148806870470000100000209F
:10076000074810B5016841F010010160032000F056
:100770006DF80F2000F006F800F024F8002010BDFE
:100780000020024070B50D4D04464FF47A71287870
:10079000B1FBF0F00A490968B1FBF0F000F0D4FABF
:1007A00048B9102C07D200222146501E00F02EF826
:1007B00000206C6070BD012070BD000010000020A2
:1007C0001C000020094808B5816941F001018161E0
:1007D000816901F001010091C16941F08051C1615D
:1007E000C06900F08050009008BD00000010024079
:1007F000002809DB00F01F02012191404009800020
:1008000000F1E020C0F8001170470000F0B40E4B7A
:100810001B680C46C3F30223C3F10705042D00D95E
:100820000425191D072901D2002300E0DB1E012643
:1008300006FA05F1491E214099409E40761E164059
:100840003143F0BC00F073BE0CED00E0064900F04F
:10085000070208684FF6FF03184040EA0220034AE7
:1008600010430860704700000CED00E00000FA053E
:100870002DE9F0470F46050061D0434E306800F087
:100880000700B84209D2306820F0070038433060D2
:10089000306800F00700B84251D128683B4C81070E
:1008A00012D5400703D5606840F4E06060602878A6
:1008B000000703D5606840F4605060606068A96814
:1008C00020F0F000084360602878C00728D06868EE
:1008D000012810D02168022810D0890700292EDABB
:1008E000616821F0030101436160FFF733FF804637
:1008F00041F288390DE021688903EFE78901EDE7CE
:10090000FFF728FFA0EB0801494502D90320BDE805
:10091000F0876068696800F00C00B0EB810FEFD1E0
:10092000306800F00700B8420BD9306820F00700AB
:1009300038433060306800F00700B84201D0012031
:10094000E5E72878400705D56068E96820F4E060AD
:10095000084360602878000706D56068296920F49C
:10096000605040EAC100606000F038F86168084AF1
:10097000C1F30311515CC84006490860064800688D
:10098000FFF700FF0020C2E70020024000100240F5
:10099000C22400081C00002014000020044805495F
:1009A00000684968044AC1F30221515CC84070479D
:1009B0001C00002000100240D22400080448054911
:1009C00000684968044AC1F3C221515CC8407047BD
:1009D0001C00002000100240D22400080E4A51687A
:1009E0000E4801F00C03042B11D0082B0FD10C483A
:1009F000C1F38343C903C05C0AD55168084AC1F3F7
:100A00004041921E515C054A5043B0FBF1F07047E3
:100A100004494843704700000010024000127A0069
:100A2000B224000800093D002DE9F84F040070D001
:100A30002078C04DC00749D06868C0F38100012804
:100A400007D06868C0F38100022809D16868C00334
:100A500006D52868800339D560680028E7D035E0DE
:100A60006068B0F5803F0BD010B1B0F5A02F11D069
:100A7000286820F480302860286820F4802002E074
:100A8000286840F480302860606890B1FFF762FE0B
:100A900006460AE0286840F480202860F0E700BF9E
:100AA000FFF758FE801B642873D828688003F7D5A9
:100AB0000CE0FFF74FFE064605E000BFFFF74AFED9
:100AC000801B6428F0D828688003F7D420789A4ED9
:100AD00080074FF001094FF0000839D5686810F021
:100AE0000C0F07D06868C0F38100022809D168683C
:100AF000C00306D42868800714D52069012808D1CE
:100B000010E02069B0B1C6F80090FFF723FE074659
:100B100005E00AE1FFF71EFEC01B0228C4D82868C2
:100B20008007F7D52868616920F0F80040EAC10025
:100B300028600DE0C6F80080FFF70CFE074604E0D1
:100B4000FFF708FEC01B022823D828688007F7D4C7
:100B5000207800072CD57948A169D9B1C0F8009058
:100B6000FFF7F8FD074604E0FFF7F4FDC01B02287D
:100B70000FD8686A8007F7D571484FF4FA510068BA
:100B8000B0FBF1F0009000BF0098411E0091FAD236
:100B90000EE080E0C0F80080FFF7DCFD074604E0CF
:100BA000FFF7D8FDC01B022875D8686A8007F7D404
:100BB0002078400760D5E8690027C00008D4E869BC
:100BC00040F08050E861E869012700F08050009013
:100BD0005C480168C90513D40168834641F48071FB
:100BE0000160FFF7B7FD824606E000BFFFF7B2FDE8
:100BF000A0EB0A0064284ED8DBF80000C005F5D54C
:100C0000E06801280AD008B1052813D0286A20F02E
:100C100001002862286A20F0040002E0286A40F0FF
:100C200001002862E06841F2883B98B1FFF792FD2D
:100C300082460BE0286A40F004002862EEE700BF1D
:100C4000FFF788FDA0EB0A0159455AD8286A8007AA
:100C5000F6D50CE0FFF77EFD824605E0FFF77AFD52
:100C6000A0EB0A0159454CD8286A8007F6D41FB179
:100C7000E86920F08050E861E06988B36968C1F3F1
:100C80008101022944D00228C6F8608004D0FFF711
:100C900061FD044638E034E0FFF75CFD074604E000
:100CA000FFF758FDC01B02282BD828688001F7D415
:100CB000206AB0F5803F05D16868A16820F4003053
:100CC00008436860D4E908010843696821F4741195
:100CD00008436860C6F86090FFF73CFD044606E0F4
:100CE00025E000BFFFF736FD001B022809D8286861
:100CF0008001F7D51BE000BFFFF72CFD001B022889
:100D000002D90320BDE8F88F28688001F4D40EE0F2
:100D10000128F7D06868226A00F48031914204D13A
:100D2000616A00F47010884201D00120EAE70020D7
:100D3000E8E7000000100240000042428004424206
:100D40001C0000200070004010B5401EB0F1807FF4
:100D500001D3012010BD4FF0E02460610F21601726
:100D600000F0E5FB0020A06107202061002010BDFD
:100D700070477047F8B5016804460868CA684B694F
:100D800010F00F0F4FF0000559D003F0010602F4E8
:100D90009077374365D0C10705D0D10503D5616C85
:100DA00041F001016164410705D5D90703D0616CA9
:100DB00041F002016164810705D5D90703D0616C58
:100DC00041F004016164010707D502F020013143BD
:100DD00003D0616C41F008016164616C00293AD074
:100DE000800604D5900602D5204600F09FFA2068C0
:100DF0004069616CC0F38010090700D460B32046DD
:100E000000F06DFA20684069400621D52068143052
:100E100050E8001F21F0400140E80012002AF5D1FF
:100E2000E06BA8B16D494163E06BFFF7F9FA002868
:100E300011D0E06B416B01B0BDE8F040084783067C
:100E40000FD593060DD52046BDE8F84000F06EBAE8
:100E50002046FFF78EFFF8BD2046FFF78AFF656446
:100E6000F8BD266B2023012E7CD1C6067AD5D60686
:100E700078D508684868009048694FF00206400637
:100E800040D5E16B086840680004000CE8D0A28DF2
:100E90008242E5D9E085886920282DD020680C3071
:100EA00050E8001F21F4807140E80012002AF5D1BB
:100EB0002068143050E8001F21F0010140E80012C2
:100EC000002AF5D12068143050E8001F21F04001BD
:100ED00040E80012002AF5D184F8423025632068EA
:100EE0000C3050E8001F21F0100140E80012002AE9
:100EF000F5D1E06BFFF770FA6663A08DE18D401AC3
:100F000081B22AE0A08DE18D401A81B2E08D0028E7
:100F1000A6D00029A4D022680C3252E8000F20F499
:100F2000907042E80007002FF5D12068143050E897
:100F3000002F22F0010240E80027002FF5D184F8AD
:100F40004230256320680C3050E8002F22F0100258
:100F500040E80023002BF5D166632046FFF708FF29
:100F6000F8BDFFE705062BD5150629D594F84100F5
:100F70002128F5D1A068B0F5805F01D12069B0B11A
:100F8000206A411C2162216800784860E08C401E84
:100F90000004000CE084E3D12068C16821F08001E6
:100FA000C1602068C16841F04001C160D8E7206A93
:100FB0000088C0F308004860206A801C2062E5E7D2
:100FC0004006CDD55006CBD5CA68204622F0400257
:100FD000CA6084F8413000F0C3F8C1E7CF120008BE
:100FE00070B5040004D094F84100002510B106E06B
:100FF000012070BD84F84050204600F023F82420E2
:1010000084F841002068C16821F40051C160204685
:1010100000F0EEF92068016921F490410161206837
:10102000416921F02A0141612068C16841F4005101
:10103000C1606564202084F8410084F84200656343
:10104000002070BD30B585B0002400940194029456
:1010500003940068184988422CD11848816941F4EA
:1010600080418161816901F480410491816941F08D
:10107000040181618069124D00F0040004904FF476
:1010800000700090022001900320039069462846DA
:10109000FFF75EFA2815CDE9000469462846029458
:1010A000FFF756FA002211462520FFF7AFFB252057
:1010B000FFF79EFB05B030BD003801400010024034
:1010C0000008014070472DE9F843044690F84100BC
:1010D0001F4616460D46202802D00220BDE8F883A0
:1010E0007DB176B100206064212084F84100FFF7D3
:1010F00031FBA6848046E684A068B0F5805F02D00C
:1011000003E00120EAE7206910B12E4600250EE039
:1011100000260CE08021204600F0C6F9A0B9AEB14F
:1011200016F8010B21684860E08C401EE084E08CDA
:1011300043464FF0000200970028EBD14FF04001EA
:10114000204600F0B1F930B10320C7E735F8020BB3
:10115000C0F30800E6E7202084F841000020BDE746
:101160007047000030B585B0002414480094019405
:1011700002940394816941F004018161816901F065
:1011800004010491816941F00801816180690C4D7D
:1011900000F008000490002240212846FFF7D4FA0E
:1011A000402000900120CDE901040220039069460F
:1011B0002846FFF7CDF905B030BD00000010024011
:1011C000000C01400C4810B50A4901604FF4E131B0
:1011D0004160002181600C22C160C0E9041281617C
:1011E000C161FFF7FDFE002803D0BDE81040FFF706
:1011F000F1B810BD00380140B0000020FEE7FEE766
:10120000704700F044BD30B58FB028216846FFF725
:1012100077F814210AA8FFF773F801210804CDE933
:1012200000100024029402250491CDE907504FF4E8
:10123000E01009906846FFF7F7FB08B172B6FEE7C9
:101240000F20CDE90A054FF48060CDE90C40022162
:101250000AA80E94FFF70CFB002801D072B6FEE737
:101260000FB030BD144910B54868144A10F00C0393
:10127000134803D0042B01D0082B09D00260496821
:10128000104AC1F30311515C0268CA40026010BDEC
:101290004A684B6802F470124FF0020413F4803F66
:1012A00004EB924202D04B689B0301D5064B00E051
:1012B000024B5A43E2E700000010024000127A009D
:1012C0001C000020C224000800093D00704710B532
:1012D000406A0021C185C184FFF74BFD10BD016844
:1012E0000C3151E8002F22F4907241E80023002BCA
:1012F000F5D10168143151E8002F22F0010241E8D4
:101300000023002BF5D1016B012909D101680C31B3
:1013100051E8002F22F0100241E80023002BF5D104
:10132000202180F8421000210163704708B590F831
:101330004210222901D0022008BD82684FF4805358
:101340009A4201D1016921B1816A9A421BD04AB106
:101350000AE00268816A5268C2F308020A80816A60
:10136000891C08E0026972B10268526802F07F02CB
:101370000A70816A491C8162C18D491E0904090CE9
:10138000C18503D01BE002685268F1E70168CA68B2
:1013900022F02002CA600168CA6822F48072CA6022
:1013A00001684A6922F001024A61202180F8421056
:1013B00000214163026B012A03D0FFF783FE002066
:1013C00008BD016301680C3151E8002F22F01002C2
:1013D00041E80023002BF5D101680A68D20602D546
:1013E0000A6849680091818DFFF7C2FCE7E70000B9
:1013F00070B5044600680169E26821F44051114368
:1014000001612169A0680843616908432168CA68CD
:1014100041F20C639A430243CA6020684169A269A1
:1014200021F44071114341611E492068884202D174
:10143000FFF7C4FA01E0FFF7B1FA00EBC00101EBDE
:101440000012606864218000B2FBF0F3B3FBF1F39B
:101450006FF018067343B2FBF0F5B2FBF0F605EB44
:101460008305322303EB0515B5FBF1F5B6FBF1F669
:1014700005F0F00505EB0615B2FBF0F6B2FBF0F057
:10148000B0FBF1F06FF01802504306EB800003EB65
:101490000010B0FBF1F0216800F00F0028448860D4
:1014A00070BD0000003801402DE9F0419846174614
:1014B0000E460446069D27E0681C25D02DB1FFF797
:1014C00049F9A0EB0800A8421ED920680C3050E86A
:1014D000001F21F4D07140E80012002AF5D12068E5
:1014E000143050E8001F21F0010140E80012002AEA
:1014F000F5D1202084F8410084F84200002084F8CF
:1015000040000320BDE8F0812068006836EA000052
:1015100004D00020B842CFD00020F3E70120F9E743
:101520000148FFF727BC0000B0000020FEE70907D4
:10153000090E002804DB00F1E02080F80014704759
:1015400000F00F0000F1E02080F8141D704700004B
:10155000002806D00E4910F0FF0F03D0C0B2085C7F
:10156000401C704710F47F4F04D0C0F30720085C84
:101570000930704710F47F0F04D0C0F30740085CB7
:101580001130704701EB106000781930704700008F
:10159000DA2400082DE9FC411F460446DDE9083144
:1015A000DDE90A65143040600060C4E90827C4E939
:1015B0000A310A46232118461C3400F0B9FAD4E94E
:1015C00003014218D4E90101104B121F00F0A0F9E9
:1015D00044F81A0B002004F801690D4A04F8036B63
:1015E000E4E8020544F8105901C404F83C0B01C4B6
:1015F00044F87409009023460190194604F1440010
:1016000000F0B8FE0020BDE8FC810000B11F00081A
:10161000BF21000810B5029C24F001044472C0E907
:1016200007120021C0E9093114304060006010BD8C
:10163000143000F0FCB970B50546FEF7E7FD296FE0
:10164000044609B1284688472046BDE87040FEF7A9
:10165000E1BD00000E4E0F4C4FF4FA750A27002230
:1016600040213046FFF770F8284600F09EFC0AA0A3
:1016700001220068A06040213046FFF765F8284647
:1016800000F093FC06A00068A0602773E7E7000065
:10169000000C014000000020787A710A0000000070
:1016A000686168610A0000007CB5FFF759F8FFF730
:1016B000AAFDFFF757FDFFF785FD14250320CDE9AF
:1016C00000054FF40076334600220C490CA000F0D0
:1016D00048FC0D4C206008B100F03AFD0420CDE933
:1016E000000533460022094909A000F03AFC606079
:1016F00008B100F02DFD00207CBD0000551600084B
:101700006C65645F70623600000000208924000868
:10171000757361727431000010B500F053F8BDE8C4
:101720001040FFF7C1BF000030B5134943680A6895
:10173000134402F1080498420DD05D885DB94D68EC
:10174000AB4208D08D689D4200D188605D684560DD
:101750005B68851A1D518368134483420BD05D88F2
:10176000002D08D18D68854200D18B604168596099
:101770004068991A015130BD380000201CB5142171
:101780000A20CDE900014FF480730022034904A030
:1017900000F0E7FBBDE81C4000F0DABC19170008B8
:1017A0006D61696E0000000070B5044C044D02E0EC
:1017B00020688047241DAC42FAD370BD0026000883
:1017C0000426000870B5044C044D02E020688047F0
:1017D000241DAC42FAD370BD042600080826000878
:1017E00010B5FEF713FD044A5188491C5180BDE82D
:1017F0001040FEF70FBD00009000002010B5FEF76E
:1018000005FD0B4C6188491E09B2618000290ADC84
:1018100000216180FEF7FEFC6068002807D0BDE86B
:10182000104000F03DBABDE81040FEF7F3BC10BD1B
:101830009000002070B5002825D0134D29688842FB
:1018400021D3696888421ED2A0F10C044FF0FF3109
:101850000E4800F0D4FA002060804FF4F55020804C
:10186000A868844200D2AC6029686068611A401A96
:101870002969081A28612046FFF756FFBDE8704025
:10188000024800F097BA70BD3800002070020020B6
:10189000004870479003002000487047903F0020A8
:1018A00010B5FEF75DFFFFF7AEFCFFF7DBFC10485D
:1018B0004FF47A710068B0FBF1F0401EB0F1807F08
:1018C0000AD24FF0E02148610A4AF02082F8140D54
:1018D0000020886107200861FFF766FFFFF7DCFF43
:1018E0000446FFF7D5FF2146BDE8104000F0D2BA0C
:1018F0001C0000200FE000E0044910B5096811B198
:101900008847002800D0FEE710BD0000200000201E
:1019100070B50446121D22F007000022094D403820
:1019200040F82250521C102AFAD301620021416271
:1019300081624FF0807200F13005C263C16285E8B8
:101940001A0070BDEFBEADDE10B5FEF75FFC044AB5
:101950001178491C1170BDE81040FEF75BBC000017
:101960003400002010B5FEF751FC044A1178491EDE
:101970001170BDE81040FEF74DBC0000340000209F
:101980002DE9F041064614460D46084600F0F6FBE8
:1019900005F11407B4B1012C18D134680EE000BF72
:1019A00095F8351094F82120A4F11400914204D246
:1019B0003946143000F022F802E02468B442EFD136
:1019C000B44203D13946304600F018F80020BDE893
:1019D000F0810268516002680A60016048607047E7
:1019E0000268516002680A600160486070470268DE
:1019F000516002680A600160486070474268116087
:101A000042684A60416008607047D0E900124A604D
:101A1000D0E900121160406000607047D0E9001208
:101A20004A60D0E900121160406000607047D0E960
:101A300000124A60D0E900121160406000607047F7
:101A40002DE9F047002807D0374CC01C20F00306D2
:101A5000E068864202D90020BDE8F0870C2E00D253
:101A60000C264FF0FF31314800F0C9F9D4F808C016
:101A70002168E768ACEB0100BA1B4FE00D186B88DA
:101A8000E3BB6B681B1A0C3BB34246D36A6806F192
:101A90001803121A0C3A4FF001094FF4F55A9A4202
:101AA0002DD383190C33CA184FF00008A2F800A0F8
:101AB000A2F80280D5F80480C2E901806B60A5F825
:101AC000029050680C37B84202D001F108028350EE
:101AD000206930440C3020616269824200D260612A
:101AE000A5F800A0654512D1A06842887AB1626865
:101AF00090420CD040680844A060F6E70DE0A5F8DD
:101B0000029068686A1A801A22691044E3E707485D
:101B100000F050F905F10C009EE768688242ADD8EC
:101B2000024800F047F996E73800002070020020D4
:101B300010B50346CCB2042A1AD3810718D119462E
:101B400044EA042343EA034306E008C1103A08C10B
:101B500041F8083B41F8043C102AF6D201E008C1E4
:101B6000121F042AFBD20B4602E000BF03F8014B10
:101B7000521EFBD210BD2DE9F0410F46064600F083
:101B800045F80546C068FFF75BFF040019D0002147
:101B9000EA68FFF7CDFF26720020607208223946FE
:101BA000204600F064F9FEF731FB064604F10C0113
:101BB000281DFFF70EFF3046FEF72CFB2046BDE840
:101BC000F0810020FBE770B5044600202072FEF78C
:101BD0001DFB054604F10C00FFF717FF2846FEF732
:101BE00019FB2046BDE87040FFF724BE70B50446DF
:101BF00000202072FEF70AFB054604F10C00FFF7F7
:101C000004FF2846BDE87040FEF704BB074A0021E8
:101C100002EB01131B78834202D102EB01107047E3
:101C2000491C0429F4DB002070470000500000200C
:101C30002DE9F041044616460D460846FFF7E6FF3B
:101C40000746FFF7CDFD381D796800E0096881423D
:101C5000FCD1FFF7D3FD45F0800020720822314609
:101C6000204600F004F9FEF7D1FA054604F10C0114
:101C7000381DFFF7AEFE2846BDE8F041FEF7CABAB0
:101C8000007A000601D5012070470020704710B58A
:101C9000FFF75AFE00F0DAFABDE81040FFF762BE27
:101CA00070B5FEF7B3FA114C05466088B0B9A0686C
:101CB000FFF74EFC0E49401E626851F8301014398F
:101CC00091420BD020700B486160007801F11C013B
:101CD000002802F11C0006D0FEF79FFA2846BDE856
:101CE0007040FEF797BAFEF798FAF7E790000020E9
:101CF000900200203400002010B50446FEF786FA5A
:101D0000024694F834000E4920F00F00401C84F87D
:101D1000340094F8350001EBC00104F114004B6865
:101D200018604B68A361486006486161A16B8368D5
:101D300019438160BDE810401046FEF76BBA000001
:101D4000900200209000002010B50446FEF75EFAD5
:101D500004F11401D1E900235360D1E900231A6092
:101D6000A161616194F83520074951F8323001EBE7
:101D7000C2018B4204D10549A36B8A689A438A60E9
:101D8000BDE81040FEF746BA900200209000002007
:101D90002DE9F04116460A461F4605460221FFF787
:101DA00047FF05F11404AC616C61AE836F720020D3
:101DB000BDE8F08170B50446FEF728FA0546606973
:101DC00004F11401884208D0143800F07DF9284647
:101DD000FEF720FAFFF764FF09E0A08B4FF6FF71D2
:101DE000884206D2401CA0832846FEF713FA002042
:101DF00070BD2846FEF70EFA6FF0020070BD73B595
:101E00000546FEF703FA0646A88B28B1401EA883B4
:101E10003046FEF7FFF921E0019808B300F072F9AF
:101E20000446002020636A7A214605F11400FFF77A
:101E3000A7FD0198002809DD04F1440001AA002152
:101E4000054600F05FFA284600F0A8FA3046FEF793
:101E5000E1F9FFF725FF206B002800D100207CBDB1
:101E60003046FEF7D7F96FF001007CBD704710B522
:101E7000002A07D0034611F8014B03F8014B2CB19F
:101E8000521EF8D110BD03F8011B00E00021521EC4
:101E9000F9D110BDC01C10B521F0030120F00300E2
:101EA00018291FD9A1F1180282421BD30E4C091A1E
:101EB0001839E1604FF4F5522060028000230C31A4
:101EC000C0E9011343804368184460600280012226
:101ED000428041608160002304A10648FFF758FF5B
:101EE0002068A06010BD00003800002068656170A7
:101EF000000000007002002010B50A4900230A4CBF
:101F00004B80184604EBC002401C5260126020282F
:101F1000F8DB1F20087003484B600C308B6040607A
:101F2000006010BD900000209002002010B5074C0A
:101F3000A068FFF70DFB0649401E51F83000143829
:101F40006060BDE810401C30FEF795B9900000209D
:101F5000900200200148406000607047A800002007
:101F600070472DE9FF478946DDE90C768246014638
:101F70001D4690460120FFF7FEFD041E0DD02846A9
:101F8000FFF75EFD60B103968DE8A10043464A4627
:101F900051462046FFF7FEFA204604B0BDE8F08720
:101FA0002046FFF710FE0020F7E700F0B1B8000070
:101FB00070B514480468FEF729F905462046FFF776
:101FC0003AFB2046FFF7C0FE042084F8340004F1F9
:101FD000440000F0BBF92046FFF752FE01280CD068
:101FE00004F114010848FFF7FBFC00BFFFF758FE9F
:101FF0002846BDE87040FEF70DB92046FFF7F6FD14
:10200000F4E70000940000209C00002000F002F89B
:10201000FCE700002DE97040FEF7F8F805460F4890
:102020000168814214D00168A1F11404D1E90002D1
:102030004260D1E900021060496009604869FFF719
:10204000F9FB2046FFF7BFFD2846FEF7E3F8E3E77C
:102050002846BDE87040FEF7DDB800009C00002077
:102060001FB5202308481F22D9008DE80F00002348
:10207000064A07A1783800F00FF804B00248BDE81E
:102080001040783800F064B8700100200D2000087E
:102090007469646C650000002DE9FF5F92460EAA2A
:1020A0000C4692E8E0010A46994683460121FFF773
:1020B000BFFD8DE8E0014B46524621465846FFF7EA
:1020C00069FA04B0BDE8F09F70B5044690F834009A
:1020D00000F00F00022802D04FF0FF3070BDFEF775
:1020E00095F8054604F11400FFF798FC04F144004C
:1020F00000F096F92846FEF78DF82046FFF7FCFD24
:10210000002070BD01480068704700009400002066
:10211000F1B5FEF77BF805460C480468204600F050
:102120002DF804F144006A460021064600F0EAF862
:10213000304600F033F92846FEF76CF8FFF7B0FDA3
:10214000206B801C00D120630020F8BD940000208B
:1021500010B590F83610012280F835108A4002211F
:10216000826380F83410FFF7AFFF0348006808B1BE
:10217000FFF796FD002010BD9400002070B50446C6
:1021800090F8340000F00F00012802D04FF0FF302B
:1021900070BDFEF73BF805462046FFF7D5FD94F8E5
:1021A000340020F00F00801C84F8340004F1440057
:1021B00000F036F92846FEF72DF8002070BD10B566
:1021C00004466FF00100206304F11400FFF726FCC1
:1021D0002046FFF791FDBDE81040FFF761BD00000C
:1021E00070B5FEF713F806461348046894F83400F7
:1021F00000F00F00012819D1D4E90501884215D05B
:1022000004F114000546FFF709FC94F835000B496A
:1022100001EBC00041680D6041686960456028605D
:102220003046FDF7F7FFFFF73BFD02E03046FDF7D4
:10223000F1FF002070BD00009400002090020020FB
:10224000014800687047000030000020094810B5C0
:102250000168491C0160FFF755FF016C491E0164CC
:1022600003D1C16B0164FFF7BBFFBDE8104000F074
:1022700003B80000300000202DE9FC41CDF804D067
:10228000CDF800D0FFF7DCFF0646FDF7BFFF07469D
:102290001B4D2DE060696FF00041301A143C8842FC
:1022A00029D22046FFF7C4F9607A810702D420F0D2
:1022B0000100607204F1140188466846FFF797FB3D
:1022C000D4E907108847FFF7BBFF06460098694628
:1022D00088420DD04046FFF7AAFB607A810707D5F8
:1022E000C10705D020F001006072204600F056F8CA
:1022F0002C68AC42CED13846FDF78CFFBDE8FC819E
:10230000A800002070B515460E460446FDF77EFF76
:10231000052E17D2DFE806F00503080C1100616AEC
:102320000FE0296861620DE0617A21F0020102E0AC
:10233000617A41F00201617204E0617AC90700D05C
:1023400001212960FDF766FF002070BD70B50446CD
:10235000FDF75CFF05462046FFF76AF9607A20F03A
:10236000010060722846FDF755FF2046FFF73EFC4E
:10237000002070BD2DE9F8439046DDE908450A4686
:102380001F4606460A21FFF753FC23463A464146BC
:1023900030460095FFF73EF9BDE8F8832DE9F84394
:1023A0000446FDF733FF80462046FFF741F9607A87
:1023B00020F001006072FFF743FF616A174A43187B
:1023C000A3620020009202EBC002694656686FF0DB
:1023D00000475DF820200AE01268A2EBC0056D6995
:1023E0009D4202D0ED1ABD4203D341F82020B242F3
:1023F000F2D10A48001F0168491C016004F1140170
:102400000098FFF7F4FA607A40F0010060724046ED
:10241000FDF700FF0020BDE8F8830000A8000020C1
:1024200070B50446407AC0070ED0FDF7EFFE0546B2
:102430002046FFF7FDF8607A20F001006072284620
:10244000FDF7E8FE002070BD4FF0FF3070BD0020AA
:10245000704700207047002070470020704710B57B
:10246000FDF7D4FEFFF71CFAFFF700FDFFF772FD42
:10247000FFF742FDFFF782F9FFF772FDFFF7F0FD6E
:10248000FFF754FD002010BD05244FF6FF754FF4F3
:10249000FA7622462B4604490448FEF714FE3046DD
:1024A000FFF783FDF5E7000008000020B0000020E2
:1024B000010202030405060708090A0B0C0D0E0FA2
:1024C00010100000000000000000010203040607D5
:1024D00008090000000001020304000001000200DE
:1024E00001000300010002000100040001000200DD
:1024F00001000300010002000100050001000200CC
:1025000001000300010002000100040001000200BC
:1025100001000300010002000100060001000200AA
:10252000010003000100020001000400010002009C
:10253000010003000100020001000500010002008B
:10254000010003000100020001000400010002007C
:102550000100030001000200010007000100020069
:10256000010003000100020001000400010002005C
:10257000010003000100020001000500010002004B
:10258000010003000100020001000400010002003C
:10259000010003000100020001000600010002002A
:1025A000010003000100020001000400010002001C
:1025B000010003000100020001000500010002000B
:1025C00001000300010002000100040001000200FC
:1025D00001000300010002000100303132333435C4
:1025E00036373839616263646566003031323334BE
:1025F0003536373839414243444546005B240008AC
:10260000532400084F240008572400082C260008F3
:1026100000000020B00000006C010008DC2600086B
:10262000B0000020404500008801000800000000C4
:1026300000000000787A710A00000000010000002C
:1026400010000000000000000024F4000000000062
:10265000000000000000000000000000000000007A
:10266000000000000000000000000000000000006A
:102670000000000000000000000000000100000059
:1026800054000020540000207800000002000000E8
:10269000640000206400002020000000050000000D
:1026A0007400002074000020300000000A000000C8
:1026B00084000020840000202C00000000000000A6
:1026C000000000000000000000000000000000000A
:0C26D000000000000000000000000000FE
:0400000508000131BD
:00000001FF
